:100000000C9461000C9473000C9473000C947300B6
:100010000C9473000C9473000C9473000C94730094
:100020000C9473000C9473000C9473000C94730084
:100030000C9473000C9473000C9473000C94730074
:100040000C94DB010C9473000C9473000C947300FB
:100050000C9473000C9473000C9473000C94730054
:100060000C9473000C94730000000000240027001F
:100070002A0000000000250028002B0000000000DE
:1000800023002600290004040404040404040202DA
:100090000202020203030303030301020408102007
:1000A0004080010204081020010204081020000012
:1000B0000008000201000003040700000000000027
:1000C000000011241FBECFEFD8E0DEBFCDBF21E07E
:1000D000A0E0B1E001C01D92AD30B207E1F70E948F
:1000E00025020C9400030C940000833081F028F466
:1000F000813099F08230A9F008958730A9F08830D6
:10010000C9F08430B1F4809180008F7D03C080916C
:1001100080008F7780938000089584B58F7784BDA9
:10012000089584B58F7DFBCF8091B0008F77809349
:10013000B00008958091B0008F7DF9CFCF93DF9309
:10014000282F30E0F901E255FF4F8491F901E6567E
:10015000FF4FD491F901EA57FF4FC491CC23A1F08E
:1001600081110E947500EC2FF0E0EE0FFF1FE458A4
:10017000FF4FA591B491EC91ED2381E090E009F45B
:1001800080E0DF91CF91089580E090E0FACF1F9357
:10019000CF93DF93282F30E0F901E255FF4F849190
:1001A000F901E656FF4FD491F901EA57FF4FC49188
:1001B000CC23A9F0162F81110E947500EC2FF0E0DE
:1001C000EE0FFF1FEE58FF4FA591B4918FB7F89433
:1001D000EC91111108C0D095DE23DC938FBFDF9125
:1001E000CF911F910895DE2BF8CFCF93DF9390E04E
:1001F000FC01E656FF4F24918A579F4FFC018491E2
:100200008823D1F090E0880F991FFC01E859FF4F37
:10021000A591B491FC01EE58FF4FC591D4916111A5
:100220000EC09FB7F8948C91E22FE0958E238C93AB
:100230002881E223E8839FBFDF91CF9108958FB794
:10024000F894EC91E22BEC938FBFF6CF1F93CF93F2
:10025000DF93182FEB0161E00E94F500209739F43D
:1002600060E0812FDF91CF911F910C94C700CF3FA9
:10027000D10511F461E0F5CFE12FF0E0E255FF4F39
:10028000E491E33031F140F4E130B1F0E230E1F0FB
:10029000C038D1057CF7E4CFE73029F1E83059F1D7
:1002A000E430B1F780918000806280938000D09329
:1002B0008B00C0938A0004C084B5806884BDC7BD2C
:1002C000DF91CF911F91089584B5806284BDC8BD30
:1002D000F7CF80918000806880938000D093890060
:1002E000C0938800EDCF8091B00080688093B0000B
:1002F000C093B300E5CF8091B00080628093B000DE
:10030000C093B400DDCF3FB7F89480910501909180
:100310000601A0910701B091080126B5A89B05C070
:100320002F3F19F00196A11DB11D3FBFBA2FA92F74
:10033000982F8827BC01CD01620F711D811D911D71
:1003400042E0660F771F881F991F4A95D1F70895DD
:100350008F929F92AF92BF92CF92DF92EF92FF92D5
:100360006B017C010E9483014B015C01C114D1042B
:10037000E104F104B9F00E948301681979098A093E
:100380009B09683E73408105910580F321E0C21A04
:10039000D108E108F10888EE880E83E0981EA11CC0
:1003A000B11CE4CFFF90EF90DF90CF90BF90AF9063
:1003B0009F908F9008951F920F920FB60F92112465
:1003C0002F933F938F939F93AF93BF93809101019E
:1003D00090910201A0910301B091040130910001BC
:1003E00023E0230F2D3758F50196A11DB11D209351
:1003F00000018093010190930201A0930301B09347
:1004000004018091050190910601A0910701B0912E
:1004100008010196A11DB11D80930501909306016D
:10042000A0930701B0930801BF91AF919F918F9165
:100430003F912F910F900FBE0F901F90189526E8B7
:10044000230F0296A11DB11DD2CF789484B582608E
:1004500084BD84B5816084BD85B5826085BD85B568
:10046000816085BD80916E00816080936E001092E6
:100470008100809181008260809381008091810061
:1004800081608093810080918000816080938000F2
:100490008091B10084608093B1008091B000816050
:1004A0008093B00080917A00846080937A0080917C
:1004B0007A00826080937A0080917A0081608093D4
:1004C0007A0080917A00806880937A001092C1004F
:1004D00061E088E00E94F50061E089E00E94F5009B
:1004E00061E08AE00E94F50061E08BE00E94F50087
:1004F00061E08DE00E94F50060E086E00E94F5007A
:1005000060E087E00E94F50068E873E180E090E039
:100510000E94A80100E010E086E00E949E00EC012D
:1005200090930C0180930B0187E00E949E009093B2
:100530000A01809309010097F1F4209709F050C057
:1005400061E088E00E94C70060E089E00E94C70087
:1005500061E08AE00E94C70060E08BE00E94C70073
:1005600064E670E083E00E94260164E670E085E0C6
:100570000E94260124C0019711F5209739F561E00A
:1005800088E00E94C70060E089E00E94C70060E048
:100590008AE00E94C70061E08BE00E94C7006FEF15
:1005A00070E083E00E9426016FEF70E085E00E941A
:1005B000260164E170E080E090E00E94A80101154E
:1005C000110509F4A9CF0E940000A6CF2197B9F721
:1005D00070E060E083E00E94260170E060E0C7CF39
:1005E000219769F760E088E00E94C70061E089E038
:1005F0000E94C70061E08AE00E94C70060E0CCCFA3
:04060000F894FFCF9C
:00000001FF
